{
  "_format": "hh-sol-artifact-1",
  "contractName": "AnonAadhaar",
  "sourceName": "@anon-aadhaar/contracts/src/AnonAadhaar.sol",
  "abi": [
    {
      "inputs": [
        {
          "internalType": "address",
          "name": "_verifier",
          "type": "address"
        },
        {
          "internalType": "uint256",
          "name": "_pubkeyHash",
          "type": "uint256"
        }
      ],
      "stateMutability": "nonpayable",
      "type": "constructor"
    },
    {
      "inputs": [],
      "name": "storedPublicKeyHash",
      "outputs": [
        {
          "internalType": "uint256",
          "name": "",
          "type": "uint256"
        }
      ],
      "stateMutability": "view",
      "type": "function"
    },
    {
      "inputs": [],
      "name": "verifier",
      "outputs": [
        {
          "internalType": "address",
          "name": "",
          "type": "address"
        }
      ],
      "stateMutability": "view",
      "type": "function"
    },
    {
      "inputs": [
        {
          "internalType": "uint256",
          "name": "nullifierSeed",
          "type": "uint256"
        },
        {
          "internalType": "uint256",
          "name": "nullifier",
          "type": "uint256"
        },
        {
          "internalType": "uint256",
          "name": "timestamp",
          "type": "uint256"
        },
        {
          "internalType": "uint256",
          "name": "signal",
          "type": "uint256"
        },
        {
          "internalType": "uint256[4]",
          "name": "revealArray",
          "type": "uint256[4]"
        },
        {
          "internalType": "uint256[8]",
          "name": "groth16Proof",
          "type": "uint256[8]"
        }
      ],
      "name": "verifyAnonAadhaarProof",
      "outputs": [
        {
          "internalType": "bool",
          "name": "",
          "type": "bool"
        }
      ],
      "stateMutability": "view",
      "type": "function"
    }
  ],
  "bytecode": "0x60a060405234801561001057600080fd5b50604051610a88380380610a888339818101604052810190610032919061011a565b816000806101000a81548173ffffffffffffffffffffffffffffffffffffffff021916908373ffffffffffffffffffffffffffffffffffffffff1602179055508060808181525050505061015a565b600080fd5b600073ffffffffffffffffffffffffffffffffffffffff82169050919050565b60006100b182610086565b9050919050565b6100c1816100a6565b81146100cc57600080fd5b50565b6000815190506100de816100b8565b92915050565b6000819050919050565b6100f7816100e4565b811461010257600080fd5b50565b600081519050610114816100ee565b92915050565b6000806040838503121561013157610130610081565b5b600061013f858286016100cf565b925050602061015085828601610105565b9150509250929050565b60805161090c61017c600039600081816102550152610376015261090c6000f3fe608060405234801561001057600080fd5b50600436106100415760003560e01c80632b7ac3f31461004657806350de0e57146100645780639c895b0a14610094575b600080fd5b61004e6100b2565b60405161005b9190610410565b60405180910390f35b61007e600480360381019061007991906104af565b6100d6565b60405161008b9190610559565b60405180910390f35b61009c610374565b6040516100a99190610583565b60405180910390f35b60008054906101000a900473ffffffffffffffffffffffffffffffffffffffff1681565b6000806100e285610398565b905060008054906101000a900473ffffffffffffffffffffffffffffffffffffffff1673ffffffffffffffffffffffffffffffffffffffff1663c542c93b60405180604001604052808660006008811061013f5761013e61059e565b5b602002013581526020018660016008811061015d5761015c61059e565b5b6020020135815250604051806040016040528060405180604001604052808960026008811061018f5761018e61059e565b5b60200201358152602001896003600881106101ad576101ac61059e565b5b602002013581525081526020016040518060400160405280896004600881106101d9576101d861059e565b5b60200201358152602001896005600881106101f7576101f661059e565b5b60200201358152508152506040518060400160405280886006600881106102215761022061059e565b5b602002013581526020018860076008811061023f5761023e61059e565b5b60200201358152506040518061012001604052807f000000000000000000000000000000000000000000000000000000000000000081526020018d81526020018c81526020018a6000600481106102995761029861059e565b5b602002013581526020018a6001600481106102b7576102b661059e565b5b602002013581526020018a6002600481106102d5576102d461059e565b5b602002013581526020018a6003600481106102f3576102f261059e565b5b602002013581526020018e8152602001878152506040518563ffffffff1660e01b815260040161032694939291906107fa565b602060405180830381865afa158015610343573d6000803e3d6000fd5b505050506040513d601f19601f82011682018060405250810190610367919061086d565b9150509695505050505050565b7f000000000000000000000000000000000000000000000000000000000000000081565b60006003826040516020016103ad91906108bb565b6040516020818303038152906040528051906020012060001c901c9050919050565b600073ffffffffffffffffffffffffffffffffffffffff82169050919050565b60006103fa826103cf565b9050919050565b61040a816103ef565b82525050565b60006020820190506104256000830184610401565b92915050565b600080fd5b6000819050919050565b61044381610430565b811461044e57600080fd5b50565b6000813590506104608161043a565b92915050565b600080fd5b60008190508260206004028201111561048757610486610466565b5b92915050565b6000819050826020600802820111156104a9576104a8610466565b5b92915050565b60008060008060008061020087890312156104cd576104cc61042b565b5b60006104db89828a01610451565b96505060206104ec89828a01610451565b95505060406104fd89828a01610451565b945050606061050e89828a01610451565b935050608061051f89828a0161046b565b92505061010061053189828a0161048d565b9150509295509295509295565b60008115159050919050565b6105538161053e565b82525050565b600060208201905061056e600083018461054a565b92915050565b61057d81610430565b82525050565b60006020820190506105986000830184610574565b92915050565b7f4e487b7100000000000000000000000000000000000000000000000000000000600052603260045260246000fd5b600060029050919050565b600081905092915050565b6000819050919050565b6105f681610430565b82525050565b600061060883836105ed565b60208301905092915050565b6000602082019050919050565b61062a816105cd565b61063481846105d8565b925061063f826105e3565b8060005b8381101561067057815161065787826105fc565b965061066283610614565b925050600181019050610643565b505050505050565b600060029050919050565b600081905092915050565b6000819050919050565b600081905092915050565b6106ac816105cd565b6106b68184610698565b92506106c1826105e3565b8060005b838110156106f25781516106d987826105fc565b96506106e483610614565b9250506001810190506106c5565b505050505050565b600061070683836106a3565b60408301905092915050565b6000602082019050919050565b61072881610678565b6107328184610683565b925061073d8261068e565b8060005b8381101561076e57815161075587826106fa565b965061076083610712565b925050600181019050610741565b505050505050565b600060099050919050565b600081905092915050565b6000819050919050565b6000602082019050919050565b6107ac81610776565b6107b68184610781565b92506107c18261078c565b8060005b838110156107f25781516107d987826105fc565b96506107e483610796565b9250506001810190506107c5565b505050505050565b6000610220820190506108106000830187610621565b61081d604083018661071f565b61082a60c0830185610621565b6108386101008301846107a3565b95945050505050565b61084a8161053e565b811461085557600080fd5b50565b60008151905061086781610841565b92915050565b6000602082840312156108835761088261042b565b5b600061089184828501610858565b91505092915050565b6000819050919050565b6108b56108b082610430565b61089a565b82525050565b60006108c782846108a4565b6020820191508190509291505056fea26469706673582212208c2f654e3ce1084dd4a01d8b28ba5381850c811a82c568c2faa73dcf9663791664736f6c63430008170033",
  "linkReferences": {},
  "deployedLinkReferences": {}
}